{
  "contractName": "DelegateV2",
  "abi": [
    {
      "constant": false,
      "inputs": [
        {
          "name": "num",
          "type": "uint256"
        }
      ],
      "name": "setNumberOfOwners",
      "outputs": [],
      "payable": false,
      "stateMutability": "nonpayable",
      "type": "function"
    },
    {
      "constant": true,
      "inputs": [],
      "name": "getNumberOfOwners",
      "outputs": [
        {
          "name": "",
          "type": "uint256"
        }
      ],
      "payable": false,
      "stateMutability": "view",
      "type": "function"
    },
    {
      "constant": false,
      "inputs": [
        {
          "name": "_proposals",
          "type": "uint256"
        }
      ],
      "name": "setProposalsLib",
      "outputs": [],
      "payable": false,
      "stateMutability": "nonpayable",
      "type": "function"
    },
    {
      "constant": true,
      "inputs": [],
      "name": "getProposalsLib",
      "outputs": [
        {
          "name": "_libProposals",
          "type": "uint256"
        }
      ],
      "payable": false,
      "stateMutability": "view",
      "type": "function"
    }
  ],
  "bytecode": "0x608060405234801561001057600080fd5b506104e9806100206000396000f3006080604052600436106100615763ffffffff7c010000000000000000000000000000000000000000000000000000000060003504166378f1d4018114610066578063b85e5b7414610080578063c6ecc9a0146100a7578063f03cfed1146100bc575b600080fd5b34801561007257600080fd5b5061007e6004356100d4565b005b34801561008c57600080fd5b50610095610176565b60408051918252519081900360200190f35b3480156100b357600080fd5b5061009561023a565b3480156100c857600080fd5b5061007e6004356102d2565b60008054604080517f429f94fd00000000000000000000000000000000000000000000000000000000815273ffffffffffffffffffffffffffffffffffffffff9092166004830152602482018490525173__StorageLibrary________________________9263429f94fd9260448082019391829003018186803b15801561015b57600080fd5b505af415801561016f573d6000803e3d6000fd5b5050505050565b60008054604080517fbd02d0f50000000000000000000000000000000000000000000000000000000081527f746f74616c0000000000000000000000000000000000000000000000000000006004820152905173ffffffffffffffffffffffffffffffffffffffff9092169163bd02d0f59160248082019260209290919082900301818787803b15801561020957600080fd5b505af115801561021d573d6000803e3d6000fd5b505050506040513d602081101561023357600080fd5b5051905090565b60008054604080517f1236ebf700000000000000000000000000000000000000000000000000000000815273ffffffffffffffffffffffffffffffffffffffff90921660048301525173__StorageLibrary________________________91631236ebf7916024808301926020929190829003018186803b1580156102be57600080fd5b505af415801561021d573d6000803e3d6000fd5b60008054604080517f21f8a7210000000000000000000000000000000000000000000000000000000081527f6f776e65720000000000000000000000000000000000000000000000000000006004820152905173ffffffffffffffffffffffffffffffffffffffff909216926321f8a721926024808401936020939083900390910190829087803b15801561036657600080fd5b505af115801561037a573d6000803e3d6000fd5b505050506040513d602081101561039057600080fd5b505173ffffffffffffffffffffffffffffffffffffffff16331461041557604080517f08c379a000000000000000000000000000000000000000000000000000000000815260206004820152601760248201527f6d73672e73656e646572206973206e6f74206f776e6572000000000000000000604482015290519081900360640190fd5b60008054604080517fe2a4853a0000000000000000000000000000000000000000000000000000000081527f746f74616c000000000000000000000000000000000000000000000000000000600482015260248101859052905173ffffffffffffffffffffffffffffffffffffffff9092169263e2a4853a9260448084019382900301818387803b1580156104a957600080fd5b505af115801561016f573d6000803e3d6000fd00a165627a7a723058202cf8b2b958ded85ca470bcef572c0622484927ec53c69018f70bbbb304f5db9f0029",
  "source": "pragma solidity ^0.4.18;\n\nimport \"./DelegateV1.sol\";\nimport \"./StorageState.sol\";\nimport \"./Ownable.sol\";\nimport \"./StorageLibrary.sol\";\n\ncontract DelegateV2 is StorageState {\n    using StorageLibrary for KeyValueStorage;\n\n    modifier onlyOwner() {\n        require(\n            msg.sender == _storage.getAddress(\"owner\"),\n            \"msg.sender is not owner\"\n        );\n        _;\n    }\n\n    function setNumberOfOwners(uint num) public onlyOwner {\n        _storage.setUint(\"total\", num);\n    }\n    function getNumberOfOwners() public view returns (uint) {\n        return _storage.getUint(\"total\");\n    }\n\n    function setProposalsLib(uint _proposals) public {\n        _storage.setProposals(_proposals);\n    }\n\n    function getProposalsLib() public view returns (uint _libProposals) {\n        return _storage.getPropsoals();\n    }\n}",
  "sourcePath": "/Users/bryceDoganer/Solidity/Solidity_Examples/upradeableToken/contracts/DelegateV2.sol",
  "compiler": {
    "name": "solc",
    "version": "0.4.24+commit.e67f0147.Emscripten.clang"
  },
  "schemaVersion": "2.0.1",
  "updatedAt": "2018-08-06T21:27:56.756Z"
}