{
  "contractName": "KeyValueStorage",
  "abi": [
    {
      "constant": true,
      "inputs": [
        {
          "name": "key",
          "type": "bytes32"
        }
      ],
      "name": "getAddress",
      "outputs": [
        {
          "name": "",
          "type": "address"
        }
      ],
      "payable": false,
      "stateMutability": "view",
      "type": "function"
    },
    {
      "constant": true,
      "inputs": [
        {
          "name": "key",
          "type": "bytes32"
        }
      ],
      "name": "getUint",
      "outputs": [
        {
          "name": "",
          "type": "uint256"
        }
      ],
      "payable": false,
      "stateMutability": "view",
      "type": "function"
    },
    {
      "constant": true,
      "inputs": [
        {
          "name": "key",
          "type": "bytes32"
        }
      ],
      "name": "getBool",
      "outputs": [
        {
          "name": "",
          "type": "bool"
        }
      ],
      "payable": false,
      "stateMutability": "view",
      "type": "function"
    },
    {
      "constant": true,
      "inputs": [
        {
          "name": "owner",
          "type": "address"
        },
        {
          "name": "spender",
          "type": "address"
        }
      ],
      "name": "getAllowance",
      "outputs": [
        {
          "name": "",
          "type": "uint256"
        }
      ],
      "payable": false,
      "stateMutability": "view",
      "type": "function"
    },
    {
      "constant": false,
      "inputs": [
        {
          "name": "key",
          "type": "bytes32"
        },
        {
          "name": "value",
          "type": "address"
        }
      ],
      "name": "setAddress",
      "outputs": [],
      "payable": false,
      "stateMutability": "nonpayable",
      "type": "function"
    },
    {
      "constant": false,
      "inputs": [
        {
          "name": "key",
          "type": "bytes32"
        },
        {
          "name": "value",
          "type": "uint256"
        }
      ],
      "name": "setUint",
      "outputs": [],
      "payable": false,
      "stateMutability": "nonpayable",
      "type": "function"
    },
    {
      "constant": false,
      "inputs": [
        {
          "name": "key",
          "type": "bytes32"
        },
        {
          "name": "value",
          "type": "bool"
        }
      ],
      "name": "setBool",
      "outputs": [],
      "payable": false,
      "stateMutability": "nonpayable",
      "type": "function"
    },
    {
      "constant": false,
      "inputs": [
        {
          "name": "owner",
          "type": "address"
        },
        {
          "name": "spender",
          "type": "address"
        },
        {
          "name": "value",
          "type": "uint256"
        }
      ],
      "name": "setAllowance",
      "outputs": [],
      "payable": false,
      "stateMutability": "nonpayable",
      "type": "function"
    },
    {
      "constant": false,
      "inputs": [
        {
          "name": "key",
          "type": "bytes32"
        }
      ],
      "name": "deleteAddress",
      "outputs": [],
      "payable": false,
      "stateMutability": "nonpayable",
      "type": "function"
    },
    {
      "constant": false,
      "inputs": [
        {
          "name": "key",
          "type": "bytes32"
        }
      ],
      "name": "deleteUint",
      "outputs": [],
      "payable": false,
      "stateMutability": "nonpayable",
      "type": "function"
    },
    {
      "constant": false,
      "inputs": [
        {
          "name": "key",
          "type": "bytes32"
        }
      ],
      "name": "deleteBool",
      "outputs": [],
      "payable": false,
      "stateMutability": "nonpayable",
      "type": "function"
    }
  ],
  "bytecode": "0x608060405234801561001057600080fd5b50610497806100206000396000f3006080604052600436106100ae5763ffffffff7c01000000000000000000000000000000000000000000000000000000006000350416630af4187d81146100b35780630e14a376146100f957806321f8a721146101135780632c62ff2d146101545780637ae1cfca1461016c578063abfdcced14610198578063bd02d0f5146101b5578063ca446dd9146101cd578063da46098c146101fe578063e2a4853a14610235578063e2b202bf14610250575b600080fd5b3480156100bf57600080fd5b506100e773ffffffffffffffffffffffffffffffffffffffff60043581169060243516610268565b60408051918252519081900360200190f35b34801561010557600080fd5b506101116004356102a8565b005b34801561011f57600080fd5b5061012b6004356102de565b6040805173ffffffffffffffffffffffffffffffffffffffff9092168252519081900360200190f35b34801561016057600080fd5b50610111600435610311565b34801561017857600080fd5b50610184600435610334565b604080519115158252519081900360200190f35b3480156101a457600080fd5b506101116004356024351515610354565b3480156101c157600080fd5b506100e7600435610381565b3480156101d957600080fd5b5061011160043573ffffffffffffffffffffffffffffffffffffffff6024351661039c565b34801561020a57600080fd5b5061011173ffffffffffffffffffffffffffffffffffffffff600435811690602435166044356103f1565b34801561024157600080fd5b50610111600435602435610432565b34801561025c57600080fd5b5061011160043561044f565b33600090815260036020908152604080832073ffffffffffffffffffffffffffffffffffffffff9586168452825280832093909416825291909152205490565b33600090815260016020908152604080832093835292905220805473ffffffffffffffffffffffffffffffffffffffff19169055565b336000908152600160209081526040808320938352929052205473ffffffffffffffffffffffffffffffffffffffff1690565b33600090815260026020908152604080832093835292905220805460ff19169055565b336000908152600260209081526040808320938352929052205460ff1690565b33600090815260026020908152604080832094835293905291909120805460ff1916911515919091179055565b33600090815260208181526040808320938352929052205490565b33600090815260016020908152604080832094835293905291909120805473ffffffffffffffffffffffffffffffffffffffff191673ffffffffffffffffffffffffffffffffffffffff909216919091179055565b33600090815260036020908152604080832073ffffffffffffffffffffffffffffffffffffffff968716845282528083209490951682529290925291902055565b336000908152602081815260408083209483529390529190912055565b33600090815260208181526040808320938352929052908120555600a165627a7a723058204cb7e41cca55628392f92815218287c93d817ea76e83834fcccc6275f8cdc16c0029",
  "source": "pragma solidity ^0.4.18;\n\ncontract KeyValueStorage {\n\n  mapping(address => mapping(bytes32 => uint256)) _uintStorage;\n  mapping(address => mapping(bytes32 => address)) _addressStorage;\n  mapping(address => mapping(bytes32 => bool)) _boolStorage;\n   mapping (address => mapping (address => mapping(address => uint256)))  _allowanceStorage;\n\n  /**** Get Methods ***********/\n\n  function getAddress(bytes32 key) public view returns (address) {\n      return _addressStorage[msg.sender][key];\n  }\n\n  function getUint(bytes32 key) public view returns (uint) {\n      return _uintStorage[msg.sender][key];\n  }\n\n  function getBool(bytes32 key) public view returns (bool) {\n      return _boolStorage[msg.sender][key];\n  }\n  function  getAllowance(address owner,address spender) public view returns (uint) {\n    return _allowanceStorage[msg.sender][owner][spender];\n  }\n  /**** Set Methods ***********/\n\n  function setAddress(bytes32 key, address value) public {\n    _addressStorage[msg.sender][key] = value;\n  }\n\n  function setUint(bytes32 key, uint value) public {\n      _uintStorage[msg.sender][key] = value;\n  }\n\n  function setBool(bytes32 key, bool value) public {\n      _boolStorage[msg.sender][key] = value;\n  }\n  function setAllowance(address owner,address spender,uint value) public {\n            _allowanceStorage[msg.sender][owner][spender] = value;\n  }\n  /**** Delete Methods ***********/\n\n  function deleteAddress(bytes32 key) public {\n      delete _addressStorage[msg.sender][key];\n  }\n\n  function deleteUint(bytes32 key) public {\n      delete _uintStorage[msg.sender][key];\n  }\n\n  function deleteBool(bytes32 key) public {\n      delete _boolStorage[msg.sender][key];\n  }\n\n}\n",
  "sourcePath": "/Users/bryceDoganer/Solidity/Solidity_Examples/upradeableToken/contracts/KeyValueStorage.sol",
  "compiler": {
    "name": "solc",
    "version": "0.4.24+commit.e67f0147.Emscripten.clang"
  },
  "schemaVersion": "2.0.1",
  "updatedAt": "2018-08-06T21:27:56.494Z"
}