{
  "contractName": "Proxy",
  "abi": [
    {
      "constant": true,
      "inputs": [],
      "name": "_implementation",
      "outputs": [
        {
          "name": "",
          "type": "address"
        }
      ],
      "payable": false,
      "stateMutability": "view",
      "type": "function"
    },
    {
      "constant": false,
      "inputs": [
        {
          "name": "newOwner",
          "type": "address"
        }
      ],
      "name": "transferOwnership",
      "outputs": [],
      "payable": false,
      "stateMutability": "nonpayable",
      "type": "function"
    },
    {
      "inputs": [
        {
          "name": "storage_",
          "type": "address"
        },
        {
          "name": "_owner",
          "type": "address"
        }
      ],
      "payable": false,
      "stateMutability": "nonpayable",
      "type": "constructor"
    },
    {
      "payable": true,
      "stateMutability": "payable",
      "type": "fallback"
    },
    {
      "anonymous": false,
      "inputs": [
        {
          "indexed": true,
          "name": "implementation",
          "type": "address"
        }
      ],
      "name": "Upgraded",
      "type": "event"
    },
    {
      "anonymous": false,
      "inputs": [
        {
          "indexed": true,
          "name": "previousOwner",
          "type": "address"
        },
        {
          "indexed": true,
          "name": "newOwner",
          "type": "address"
        }
      ],
      "name": "OwnershipTransferred",
      "type": "event"
    },
    {
      "constant": true,
      "inputs": [],
      "name": "implementation",
      "outputs": [
        {
          "name": "",
          "type": "address"
        }
      ],
      "payable": false,
      "stateMutability": "view",
      "type": "function"
    },
    {
      "constant": false,
      "inputs": [
        {
          "name": "impl",
          "type": "address"
        }
      ],
      "name": "upgradeTo",
      "outputs": [],
      "payable": false,
      "stateMutability": "nonpayable",
      "type": "function"
    }
  ],
  "bytecode": "0x608060405234801561001057600080fd5b50604051604080610585833981016040818152825160209093015160018054600160a060020a0319908116331790915560008054600160a060020a0380881691909316178082557fca446dd90000000000000000000000000000000000000000000000000000000086527f6f776e65720000000000000000000000000000000000000000000000000000006004870152828416602487015293519294939091169263ca446dd9926044808301939282900301818387803b1580156100d357600080fd5b505af11580156100e7573d6000803e3d6000fd5b505050505050610489806100fc6000396000f3006080604052600436106100615763ffffffff7c01000000000000000000000000000000000000000000000000000000006000350416633659cfe6811461017357806359679b0f146101a35780635c60da1b146101e1578063f2fde38b146101f6575b6000606061006d610224565b915073ffffffffffffffffffffffffffffffffffffffff8216151561011957604080517f08c379a000000000000000000000000000000000000000000000000000000000815260206004820152602760248201527f43616e6e6f742073657420696d706c656d656e746174696f6e20746f2061646460448201527f7265737328302900000000000000000000000000000000000000000000000000606482015290519081900360840190fd5b6000368080601f0160208091040260200160405190810160405280939291908181526020018383808284378201915050505050509050600080825160208401855af43d604051816000823e82801561016f578282f35b8282fd5b34801561017f57600080fd5b506101a173ffffffffffffffffffffffffffffffffffffffff60043516610240565b005b3480156101af57600080fd5b506101b8610378565b6040805173ffffffffffffffffffffffffffffffffffffffff9092168252519081900360200190f35b3480156101ed57600080fd5b506101b8610224565b34801561020257600080fd5b506101a173ffffffffffffffffffffffffffffffffffffffff60043516610394565b60025473ffffffffffffffffffffffffffffffffffffffff1690565b60015473ffffffffffffffffffffffffffffffffffffffff16331461026457600080fd5b60025473ffffffffffffffffffffffffffffffffffffffff8281169116141561031457604080517f08c379a000000000000000000000000000000000000000000000000000000000815260206004820152602a60248201527f43616e6e6f74207570677261646520746f207468652073616d6520696d706c6560448201527f6d656e746174696f6e2e00000000000000000000000000000000000000000000606482015290519081900360840190fd5b6002805473ffffffffffffffffffffffffffffffffffffffff191673ffffffffffffffffffffffffffffffffffffffff83169081179091556040517fbc7cd75a20ee27fd9adebab32041f755214dbc6bffa90cc0225b39da2e5c2d3b90600090a250565b60025473ffffffffffffffffffffffffffffffffffffffff1681565b60015473ffffffffffffffffffffffffffffffffffffffff1633146103b857600080fd5b73ffffffffffffffffffffffffffffffffffffffff811615156103da57600080fd5b60015460405173ffffffffffffffffffffffffffffffffffffffff8084169216907f8be0079c531659141344cd1fd0a4f28419497f9722a3daafe3b4186f6b6457e090600090a36001805473ffffffffffffffffffffffffffffffffffffffff191673ffffffffffffffffffffffffffffffffffffffff929092169190911790555600a165627a7a72305820c753e2343f93d3227cf2e57bd1e5a3aa9e6e720f5a864246bd4c981b91d28ed40029",
  "source": "pragma solidity ^0.4.18;\n\nimport \"./Ownable.sol\";\nimport \"./StorageState.sol\";\n\ncontract Proxy is StorageState , Ownable {\n    \n    constructor(KeyValueStorage storage_, address _owner) public {\n        _storage = storage_;\n        _storage.setAddress(\"owner\", _owner);\n    }\n\n    event Upgraded(address indexed implementation);\n\n    address public _implementation;\n\n    function implementation() public view returns (address) {\n        return _implementation;\n    }\n\n    function upgradeTo(address impl) public onlyOwner {\n        require(\n            _implementation != impl,\n            \"Cannot upgrade to the same implementation.\"\n        );\n        _implementation = impl;\n        emit Upgraded(impl);\n    }\n  \n    function () public payable {\n        address _impl = implementation();\n        require(\n            _impl != address(0),\n            \"Cannot set implementation to address(0)\"\n        );\n        bytes memory data = msg.data;\n\n        assembly {\n          let result := delegatecall(gas, _impl, add(data, 0x20), mload(data), 0, 0)\n          let size := returndatasize\n          let ptr := mload(0x40)\n          returndatacopy(ptr, 0, size)\n          switch result\n          case 0 { revert(ptr, size) }\n          default { return(ptr, size) }\n        }\n    }\n}",
  "sourcePath": "/Users/bryceDoganer/Solidity/Solidity_Examples/upradeableToken/contracts/Proxy.sol",
  "compiler": {
    "name": "solc",
    "version": "0.4.24+commit.e67f0147.Emscripten.clang"
  },
  "schemaVersion": "2.0.1",
  "updatedAt": "2018-08-06T21:27:56.496Z"
}