{
  "contractName": "StorageLibrary",
  "abi": [
    {
      "constant": false,
      "inputs": [
        {
          "name": "_storage",
          "type": "KeyValueStorage"
        },
        {
          "name": "_proposals",
          "type": "uint256"
        }
      ],
      "name": "setProposals",
      "outputs": [],
      "payable": false,
      "stateMutability": "nonpayable",
      "type": "function"
    },
    {
      "constant": true,
      "inputs": [
        {
          "name": "_storage",
          "type": "KeyValueStorage"
        }
      ],
      "name": "getPropsoals",
      "outputs": [
        {
          "name": "_proposals",
          "type": "uint256"
        }
      ],
      "payable": false,
      "stateMutability": "view",
      "type": "function"
    }
  ],
  "bytecode": "0x610286610030600b82828239805160001a6073146000811461002057610022565bfe5b5030600052607381538281f30073000000000000000000000000000000000000000030146080604052600436106100625763ffffffff7c01000000000000000000000000000000000000000000000000000000006000350416631236ebf78114610067578063429f94fd1461009a575b600080fd5b61008873ffffffffffffffffffffffffffffffffffffffff600435166100cd565b60408051918252519081900360200190f35b8180156100a657600080fd5b506100cb73ffffffffffffffffffffffffffffffffffffffff6004351660243561019d565b005b604080517f50726f706f73616c730000000000000000000000000000000000000000000000815281519081900360090181207fbd02d0f50000000000000000000000000000000000000000000000000000000082526004820152905160009173ffffffffffffffffffffffffffffffffffffffff84169163bd02d0f59160248082019260209290919082900301818787803b15801561016b57600080fd5b505af115801561017f573d6000803e3d6000fd5b505050506040513d602081101561019557600080fd5b505192915050565b604080517f50726f706f73616c730000000000000000000000000000000000000000000000815281519081900360090181207fe2a4853a000000000000000000000000000000000000000000000000000000008252600482015260248101839052905173ffffffffffffffffffffffffffffffffffffffff84169163e2a4853a91604480830192600092919082900301818387803b15801561023e57600080fd5b505af1158015610252573d6000803e3d6000fd5b5050505050505600a165627a7a72305820a8d2f9206c1d827f2ae4fcd9c0d54197539a6ac2031bb33e35ef9da8a286e9100029",
  "source": "pragma solidity ^0.4.24;\n\nimport \"./StorageState.sol\";\n\nlibrary StorageLibrary {\n    function setProposals(KeyValueStorage _storage, uint _proposals) public {\n        _storage.setUint(keccak256(\"Proposals\"), _proposals);\n    }\n\n    function getPropsoals(KeyValueStorage _storage) public view returns (uint _proposals) {\n        return _storage.getUint(keccak256(\"Proposals\"));\n    }\n}\n",
  "sourcePath": "/Users/bryceDoganer/Solidity/Solidity_Examples/upradeableToken/contracts/StorageLibrary.sol",
  "compiler": {
    "name": "solc",
    "version": "0.4.24+commit.e67f0147.Emscripten.clang"
  },
  "schemaVersion": "2.0.1",
  "updatedAt": "2018-08-06T21:27:56.755Z"
}